:100000000C9480000C94A8000C94A8000C94A800F8
:100010000C94A8000C94A8000C94A8000C94A800C0
:100020000C94A8000C94A8000C94A8000C94A800B0
:100030000C94A8000C94A8000C94A8000C94A800A0
:100040000C940D0C0C94A8000C94DB0B0C94B50BC9
:100050000C94A8000C94A8000C94A8000C94A80080
:100060000C94A8000C94A800546F6F446565700050
:100070004E6F4D656D6F727900496E76616C696483
:10008000496E70757400496E636F6D706C65746550
:10009000496E70757400456D707479496E70757431
:1000A000004F6B00A1009600860079007000680088
:1000B000646573657269616C697A654A736F6E28ED
:1000C00029206661696C65643A20000000204100C7
:1000D00000C84200401C4620BCBE4CCA1B0E5AAE93
:1000E000C59D74CDCCCC3D0AD7233C17B7D138770A
:1000F000CC2B329595E6241FB14F0A00570C1A0DF0
:1001000011241FBECFEFD8E0DEBFCDBF22E0A4E9AF
:10011000B1E001C01D92A035B207E1F711E0A0E007
:10012000B1E0EEE8F1E202C005900D92A439B1070A
:10013000D9F710E0CFE7D0E004C02197FE010E947C
:10014000AA0ECE37D107C9F70E94950C0C94BA10AD
:100150000C94000008950895AF92BF92CF92DF9261
:10016000EF92FF920F931F93CF93DF936C017B016C
:100170008B01040F151FEB015E01AE18BF08C017FD
:10018000D10759F06991D601ED91FC910190F08170
:10019000E02DC6010995892B79F7C501DF91CF9133
:1001A0001F910F91FF90EF90DF90CF90BF90AF9095
:1001B0000895FC01538D448D252F30E0842F90E06D
:1001C000821B930B541710F0CF9608950197089552
:1001D000FC01918D828D981761F0A28DAE0FBF2F1B
:1001E000B11D5D968C91928D9F5F9F73928F90E071
:1001F00008958FEF9FEF08952FB7F894809199019C
:1002000090919A01A0919B01B0919C012FBF809386
:10021000A5019093A601A093A701B093A8018DE931
:1002200091E00E94E80097FF26C02FB7F8948091D4
:10023000990190919A01A0919B01B0919C012FBFCF
:100240004091A5015091A6016091A7017091A8016C
:10025000841B950BA60BB70B4091A1015091A201F5
:100260006091A3017091A40184179507A607B707B1
:10027000B0F28FEF9FEF0895FC01918D828D98175A
:1002800031F0828DE80FF11D858D90E008958FEF9C
:100290009FEF0895FC01918D228D892F90E0805C65
:1002A0009F4F821B91098F73992708958DE991E0E3
:1002B0000E944A0121E0892B09F420E0822F089551
:1002C00080E090E0892B29F00E94560181110C9466
:1002D00000000895FC01A48DA80FB92FB11DA35AE9
:1002E000BF4F2C91848D90E001968F739927848F56
:1002F000A689B7892C93A089B1898C918370806479
:100300008C93938D848D981306C00288F389E02D19
:1003100080818F7D80830895EF92FF920F931F93CA
:10032000CF93DF93EC0181E0888F9B8D8C8D9813A8
:100330001AC0E889F989808185FF15C09FB7F894B4
:10034000EE89FF896083E889F98980818370806400
:1003500080839FBF81E090E0DF91CF911F910F914B
:10036000FF90EF900895F62E0B8D10E00F5F1F4F5A
:100370000F731127E02E8C8D8E110CC00FB607FC69
:10038000FACFE889F989808185FFF5CFCE010E94F7
:100390006A01F1CFEB8DEC0FFD2FF11DE35AFF4FFA
:1003A000F0829FB7F8940B8FEA89FB898081806285
:1003B000CFCF0F931F93CF93DF938C01D0E0C0E09A
:1003C000F801EC0FFD1F6491662341F08DE991E087
:1003D0000E948C01892B11F02196F2CFCE01DF9182
:1003E000CF911F910F910895CF93DF93EC01888DEA
:1003F0008823B9F0AA89BB89E889F9898C9185FDA0
:1004000003C0808186FD0DC00FB607FCF7CF8C912D
:1004100085FFF2CF808185FFEDCFCE010E946A017A
:10042000E9CFDF91CF9108953FB7F894809195017E
:1004300090919601A0919701B091980126B5A89B43
:1004400005C02F3F19F00196A11DB11D3FBFBA2F66
:10045000A92F982F8827BC01CD01620F711D811D26
:10046000911D42E0660F771F881F991F4A95D1F7AB
:1004700008958F929F92AF92BF92CF92DF92EF92A8
:10048000FF924B015C010E9414026B017C010E94EF
:1004900014026C197D098E099F09683E734081051D
:1004A0009105A8F321E0821A9108A108B10888EE0D
:1004B000C80E83E0D81EE11CF11C81149104A10434
:1004C000B10429F7FF90EF90DF90CF90BF90AF90ED
:1004D0009F908F90089580339CF08A3324F08F355D
:1004E00024F08B3724F481E0089581344CF08B356F
:1004F000D4F393ED980F81E09230B0F380E008954B
:100500008B32B9F7F0CFFC01808581110AC0A5813B
:10051000B681CD010196968385838C91878381E096
:100520008087878108959F92AF92BF92CF92DF928A
:10053000EF92FF920F931F93CF93DF9300D000D0E1
:100540001F92CDB7DEB78C010E948302B82ED8016E
:1005500018961C92F12CE12C70EFA72EC8010E9476
:100560008302F8011086B81609F4CBC0811119C0B6
:10057000F801E55BFF4F82E090E09183808380E0AB
:100580000F900F900F900F900F90DF91CF911F91D0
:100590000F91FF90EF90DF90CF90BF90AF909F9022
:1005A00008958C3509F0A2C0C8010E9483028823F7
:1005B000F9F2E8E1F1E0853709F08CC0D80118962E
:1005C0001C9264E0962ED12CC12CC8010E9483029B
:1005D000882371F281344CF48053803148F0F80163
:1005E000E55BFF4F83E090E0C8CF8F7D8753F5CF69
:1005F00054E0CC0CDD1C5A95E1F7C82AF8011086AE
:100600009A949110E2CFC601985D8115944020F430
:10061000760123E0F222A2CFC6019C5D81159440B1
:1006200078F5B3E0DB22C701982F8827990F990F3F
:100630008C299D29B0E0A0E011961982282F2F73F4
:1006400020682A8336E0B695A795979587953A95C1
:10065000D1F78032910530F5806C8B83FE013496A2
:100660008291882309F47ACFD8014D915C9111973A
:100670009A012F5F3F4F2D933C93DA018C93F0CF7B
:10068000C601B0E0A0E080389105A105B105A8F64B
:10069000D801ED91FC911197CF0101968D939C9318
:1006A000C0825CCF282F2F7320682B8326E096957D
:1006B00087952A95E1F78031910528F4806E8C8327
:1006C000FE013596CDCF80688C83AD82FE013696D3
:1006D000C7CF32969081992309F481CF8913F9CF3E
:1006E0008181882309F47BCFF8011086D801ED9130
:1006F000FC9111979F012F5F3F4F2D933C93808377
:100700002DCF81E03DCF1F93CF93DF93EC01162FC8
:100710000E948302811306C0188681E0DF91CF9189
:100720001F91089580E0FACFCF93DF93EC01CE01C3
:100730000E9483028B303CF489304CF4882349F0CA
:1007400081E08C8310C08D3011F08032C9F718869B
:10075000EECF8C8181110AC081E090E0C55BDF4F54
:100760009983888380E0DF91CF91089582E090E0C3
:10077000F5CFFC01892B31F084818F77843029F00B
:10078000853019F090E080E008958081918108958E
:10079000CF93DF93DC01EB01EC81FD818A819B81AA
:1007A0000896E817F90740F481E08887F0E0E0E078
:1007B000CF01DF91CF9108953897FD83EC83309777
:1007C000B9F31296CD91DC911397209791F0CF0158
:1007D0008C1B9D0B23E0959587952A95E1F78D83DA
:1007E0001396FC93EE931297158214821782168249
:1007F000DFCF1196FC93EE93F3CFFC010190002024
:10080000E9F73197AF01481B590BBC018DE991E025
:100810000C94AC00CF93DF930E94FD03EC0189E2BE
:1008200091E00E94FD038C0F9D1FDF91CF910895F1
:100830000F931F93CF93DF934115510541F0FC01B6
:10084000048115810115110539F4FB011082DF9136
:10085000CF911F910F9108954150510940175107B1
:1008600008F48A01EB01FC0160817181A801CE01CD
:100870000E94AB10C00FD11F1882E9CFFC0180810C
:100880009181009711F00C944C0F08950F931F93D2
:10089000CF93DF93EC0188819981009759F02A81E9
:1008A0003B812617370730F081E0DF91CF911F9110
:1008B0000F9108958B016F5F7F4F0E94D50F0097B6
:1008C00059F0998388831B830A832C813D81232BD4
:1008D00059F7FC011082E8CF80E0E7CFEF92FF925A
:1008E0000F931F93CF93DF93EC017B018A01BA0131
:1008F0000E94460428813981811114C021153105D7
:1009000019F0C9010E944C0F198218821D821C82A5
:100910001B821A82CE01DF91CF911F910F91FF9020
:10092000EF9008951D830C83B701C9010E94A410A4
:10093000F1CF50E040E068E271E00C946E04FC01FD
:100940001182108213821282158214826115710540
:1009500051F0FB0101900020E9F73197AF01461BF0
:10096000570B0C946E0408950F931F93CF93DF934E
:1009700061157105B9F08B01FC01C081D18120970F
:1009800099F06E817F81C8010E949B10892B61F0D4
:100990008D81882339F0F8E08F02C0011124C80F3F
:1009A000D91FEDCFD0E0C0E0CE01DF91CF911F91F4
:1009B0000F9108954F925F926F927F92BF92CF9264
:1009C000DF92EF92FF920F931F93CF93DF93EC018F
:1009D0008B01E42E0E949403F82E811110C0F12C9B
:1009E0008F2DDF91CF911F910F91FF90EF90DF90AE
:1009F000CF90BF907F906F905F904F900895CE0101
:100A00000E948302873209F415C10CF5823209F481
:100A100011C1CE010E948302B82E6E01FBE0CF0E01
:100A2000D11CE12C36018B2D0E946B02882309F426
:100A300023C12FE3E21609F41FC11886E394F601DF
:100A4000B1926F01CE010E948302B82EECCF8B359C
:100A5000C1F18B37F1F6F80184818078806284835C
:100A60001182108213821282EE20B1F11886CE011B
:100A70000E949403882309F4B2CF6DE7CE010E944F
:100A80008303D82E8111ACCFEA94888199819B830E
:100A90008A83CE010E948302873209F45DC08232CC
:100AA00009F45AC0CE010E948302F82E0E946B0204
:100AB000811159C0C55BDF4F83E090E09983888343
:100AC00050C0F80184818078806484831182108210
:100AD00013821282E11007C0C55BDF4F85E090E012
:100AE000998388837CCF1886CE010E949403882343
:100AF00009F475CF6DE5CE010E948303811170CF9B
:100B0000EA9469857A85C8010E94C803009729F490
:100B1000C55BDF4F84E090E0E3CF4E2DBC01CE01FA
:100B20000E94DA04882309F45ACFCE010E9494036C
:100B3000882309F454CF6DE5CE010E94830381110F
:100B40004FCF6CE2CE010E9483038111DACFC55BE7
:100B5000DF4F83E090E0C4CFCE010E949302811169
:100B600012C0FD2C3DCF1886E881F981CF01019696
:100B700099838883F082CE010E948302F82E0E941E
:100B80006B028111F0CFCE010E949403882349F3B8
:100B90006AE3CE010E948303882309F48BCFE881A6
:100BA000F9811082688079806A817B81C8010E9406
:100BB000B404BC01892BE1F4F30110826A807B80CC
:100BC0008881998101969983888369857A85C8018E
:100BD0000E94C803FC01892B29F4C55BDF4F84E028
:100BE00090E06CCF84818F77848377826682BF01A7
:100BF0004E2DCE010E94DA04882309F4B2CFCE0133
:100C00000E949403882309F4ACCF6DE7CE010E94C3
:100C1000830381110DC06CE2CE010E9483038823FF
:100C200009F448CFCE010E94940381112ECF99CFB1
:100C3000D82E97CF888199819B838A83CE010E9489
:100C40009302F82E882309F4CACEE881F981108234
:100C5000288139814A815B81C90101969983888302
:100C6000F801848180788460848351834083241BCD
:100C7000350B33832283B4CEFE01EE0DF11D1386B6
:100C80008B85843781F4F801848180788660848341
:100C900081E08083F4E0EF1609F4A2CEC55BDF4F5C
:100CA00082E090E01DCF863641F4F801848180789F
:100CB000866084831082F5E0EECF8E3621F424E046
:100CC000E212ECCF8DCE8B32D9F1F3018D32D1F51A
:100CD000FE013C96BF2C808190ED980F9A3018F061
:100CE0008E3209F034CF6F0160E070E0CB01F60185
:100CF0002191A0ED4A2E420E39E0341528F16A39CF
:100D000049E97407840749E1940740F5AAE0B0E097
:100D10009B01AC010E94370E512C712C612CA30158
:100D20009201209530954095509526173707480732
:100D30005907A0F0640D751D861D971D6F01D7CF53
:100D4000FE013C96B12CC7CF211108C0BB2071F128
:100D500061307105810550E89507A0F0E12CEAE0CB
:100D60004E2E512C612C712C61157105F0E88F0706
:100D7000910530F1A30192010E94880ECA01B901C8
:100D8000E394F2CFF801248120782A6024839B0128
:100D9000AC0188279927DC01821B930BA40BB50BB0
:100DA00080839183A283B383FB2C1ACEF801248124
:100DB000207828602483608371838283938310CE9C
:100DC000D601F60121916F0130ED320F3A3010F467
:100DD000E394F6CF2E32F1F4FD013196DF01319626
:100DE0002C9150EDD52ED20E29E02D1598F06C3CAB
:100DF0003CEC73073CE08307910580F7AAE0B0E084
:100E00009B01AC010E94370E6D0D711D811D911D5E
:100E1000EA94E4CF2C912F7D253409F08CC01196F3
:100E20002C9111972D32D9F512967F2CFD0130E0CF
:100E300020E0CE2C0E2C000CDD084AE0542EDF0101
:100E4000619040ED460D4A3008F043C0529EA0012B
:100E5000539E500D1124262D660C330B205331095F
:100E6000240F351FA9014C0D5D1D473251053CF380
:100E7000F80184817720D1F040E050E060E070E834
:100E8000B11003C040E050E0BA0180788C60F801F6
:100E900084834083518362837383F72CA1CD2B32EB
:100EA00019F01196712CC2CF1296FCCF40E050E0A1
:100EB00060E87FEFB11004C040E050E060E87FE7F9
:100EC00080788C60F80184834083518362837383CC
:100ED00087CD772019F03195219531094C91411139
:100EE00036CEE901CE0DD11DE7FCDA950E94260D24
:100EF0001C161D061CF5E12CC0FF0CC024E0E29E70
:100F0000F0011124E553FF4F2591359145915491FE
:100F10000E94630DD595C795E394209769F7B110AA
:100F20009058F801248120782C6024836083718399
:100F30008283938355CD30E020E0D0CFD195C19509
:100F4000D109E12C209759F3C0FF0CC044E0E49E86
:100F5000F0011124ED51FF4F2591359145915491A8
:100F60000E94630DD595C795E394ECCFFC012481D5
:100F700025FD0C94B40490E080E008950C94290EB3
:100F8000CF92DF92EF92FF920F931F93CF93DF9355
:100F90008C016B01FB01E480F5806E2D0E94BE0781
:100FA000D0E0C0E0FF240F5F1F4FCE15DF05BCF47B
:100FB000F60184819581C817D90778F480819181E1
:100FC000009759F08C0F9D1FFC016081C8018C0FA8
:100FD0009D1F0E94290E2196E8CF60E0F7CFDF9198
:100FE000CF911F910F91FF90EF90DF90CF900895D8
:100FF0006F927F928F929F92AF92BF92CF92DF9229
:10100000EF92FF920F931F93CF93DF93CDB7DEB78D
:101010004C015B016DB67EB6CB010E94210E082FFC
:1010200010E0C80101962DB73EB7281B390B0FB64B
:10103000F8943EBF0FBE2DBF8DB79EB701966C01D1
:1010400075015C019FEFE91AF90AC5018C199D0928
:10105000801791073CF4C7010E94210EF50181938E
:101060005F01F0CFF601E00FF11F1082B601C4015D
:101070000E949F04C4010FB6F8947EBE0FBE6DBEE1
:10108000DF91CF911F910F91FF90EF90DF90CF9064
:10109000BF90AF909F908F907F906F9008954F92E8
:1010A0005F926F927F92AF92BF92CF92DF92EF9258
:1010B000FF920F931F93CF93DF93CDB7DEB7CF5738
:1010C000D2400FB6F894DEBF0FBECDBFCDB6DEB6B0
:1010D00068E271E0CE0186589D4F0E949F048DE921
:1010E00091E00E944A01181619060CF0E1C0EDB615
:1010F000FEB668E271E08E010F5F1F4FC8010E94CB
:101100009F040E94FC0097FD23C0C15FDD4F8883D0
:10111000CF50D240C05FDD4F1882C051D240AD8069
:10112000BE808FEFA81AB80AB501C8010E94460414
:10113000882339F329813A818D819E81BE01615FC7
:101140007D4F820F931F0E94A410BE82AD82D9CF23
:10115000C658DD4F88819981CA57D240009709F45B
:10116000C9C069817A816115710509F4C1C0C4588B
:10117000DD4F48815981CC57D2402D813E814217A5
:10118000530708F4B5C00E94A4108D819E81C258F7
:10119000DD4F99838883CE57D2401E821D82C801BD
:1011A0000E943E04C258DD4F48815981CE57D2403B
:1011B0004F5F5F4FEDB7FEB7E41BF50B0FB6F8942A
:1011C000FEBF0FBEEDBF8DB79EB701965C01BC019F
:1011D000CE0186589D4F0E941804CE010F969A8327
:1011E00089839C838B83EFE0F2E0EC0FFD1FFE838D
:1011F000ED83F887EF8319861E8680E090E0DC019E
:10120000C501C15FDD4F88839983AA83BB83CF501B
:10121000D240CD5EDD4F1882C351D240CC5EDD4F4F
:10122000B982A882C451D240C95EDD4F1882C7512D
:10123000D240C85EDD4F19830883C851D240C65AD8
:10124000DD4F19821882CA55D2404AE0BE01665F5E
:101250007F4FCF010E94DA04C65ADD4F0881198101
:10126000CA55D2400115110569F4CA5EDD4F888167
:10127000C651D240882309F432C18E8583FF2FC125
:1012800003E010E080EB90E00E94D901F801EE0F3E
:10129000FF1FEC55FF4F859194910E94D90189E27F
:1012A00091E00E94FD030FB6F894FEBE0FBEEDBEA6
:1012B000CE0186589D4F0E943E040FB6F894DEBEC4
:1012C0000FBECDBEC158DD4F0FB6F894DEBF0FBEC6
:1012D000CDBFDF91CF911F910F91FF90EF90DF90E5
:1012E000CF90BF90AF907F906F905F904F90089598
:1012F0000E944C0F89819A81C658DD4F998388835B
:10130000CA57D2408B819C81C458DD4F9983888312
:10131000CC57D2408D819E81C258DD4F99838883FE
:10132000CE57D2401A8219821C821B8236CF85E3A7
:1013300091E02CC10E949B105DC0F3E062E0BF16FB
:1013400021F082E0B8120AC061E090E080E00E94E3
:10135000BE0787E791E00E94FD03A1C087E691E008
:101360000E940A049AE0492E512C612C712C60E0F5
:10137000C8010E94290EC8010E94210E282F30E0CA
:1013800050E040E0C15DDD4F1882CF52D2408FE087
:10139000A82E82E0B82EAC0EBD1E90E2A90EB11CA4
:1013A000CA01B901A30192010E94880E605DF50196
:1013B00062935F01211531054105510589F7309789
:1013C00019F0CF010E94FD0389E291E00E94FD0324
:1013D0000F5F1F4F083EF3E01F0749F6BACF6115B4
:1013E000710559F0232B49F0FB01808190E0919524
:1013F00081959109892B09F0A0CF0DB71EB7C05A6E
:10140000DD4F48815981C056D2404F5F5F4F8DB745
:101410009EB7841B950B0FB6F8949EBF0FBE8DBF71
:10142000EDB7FEB731965F01BF01CE01845A9D4FE3
:101430000E941804B501CE01815F9D4F0E949F0458
:101440008DE991E00E94F40182E691E00E940A0495
:101450008DE991E00E94F401C05ADD4F4881598125
:10146000C056D240C45ADD4F68817981CC55D240F4
:101470008DE991E00E94AC0089E291E00E94FD03B9
:1014800063E090E080E00E94BE07CE01815F9D4F47
:101490000E943E040FB6F8941EBF0FBE0DBFCE01D2
:1014A000845A9D4F0E943E04CE018E599D4F0E944A
:1014B0003E046AE070E080E090E00E943902CE01D4
:1014C0008C589D4F0E943E04CE0182599D4F0E9430
:1014D0003E04CE0188599D4F0E943E04E4CE6CE745
:1014E00071E0CE010A960E94B6070E94B9033C0142
:1014F00060E871E0CE010A960E94B6070E94B90327
:101500005C016BE871E0CE010A960E94B6070E946A
:10151000B9038C01B301CE0188599D4F0E949F04ED
:10152000B501CE0182599D4F0E949F04B801CE01A2
:101530008C589D4F0E949F04C459DD4F888199812A
:10154000CC56D240892B21F16CE271E0C859DD4FB5
:1015500088819981C856D2400E949B10892BC1F482
:1015600086E492E00E949904CE0186589D4F0E9425
:1015700099048DE991E00E94F40190E080E00E94DE
:10158000210E882309F4D3CE8FE291E00E94FD035F
:10159000C459DD4F88819981CC56D240892B09F4FA
:1015A0008CC06BE371E0C859DD4F88819981C856C2
:1015B000D2400E949B10892B09F07FC08FE391E0FD
:1015C0000E940A048DE991E00E94F401C45ADD4FA3
:1015D00019821882CC55D240C25ADD4F1982188226
:1015E000CE55D240C05ADD4F19821882C056D24023
:1015F000C259DD4F68817981CE56D240611571059F
:1016000059F0CE58DD4F48815981C257D240CE01A2
:10161000845A9D4F0E946E04C15FDD4F198218826B
:10162000CF50D240CF5EDD4F19821882C151D240D7
:10163000CD5EDD4F19821882C351D240CC58DD4FA8
:1016400068817981C457D2406115710559F0C85835
:10165000DD4F48815981C857D240CE01815F9D4FEF
:101660000E946E0464E670E080E090E00E9439021F
:1016700063E090E080E00E94BE07BE01615F7D4FA5
:1016800081E090E00E94C007BE01645A7D4F89E26C
:1016900090E00E94C007CE01815F9D4F0E943E04F2
:1016A000CE01845A9D4F0E943E0480E492E00E9445
:1016B000990486E492E00E949904C459DD4F888120
:1016C0009981CC56D240892B09F4F3CE6CE571E0B8
:1016D000C859DD4F88819981C856D2400E949B101D
:1016E0008C01892B09F0E5CE90E080E00E94210E6C
:1016F000B82E61E070E0CE018E599D4F0E94F80730
:1017000069E270E0CE01845A9D4F0E94F8078DE98E
:1017100091E00E94F401C858DD4F28813981C857F3
:10172000D240CA59DD4F88819981C656D2402817C8
:10173000390709F002CECC58DD4F88819981C45712
:10174000D240CE59DD4F68817981C256D240009790
:1017500009F445CE6115710509F0ECCD232B09F490
:101760004CCEFC01808190E045CE1F920F920FB6C7
:101770000F9211242F933F934F935F936F937F9317
:101780008F939F93AF93BF93EF93FF938DE991E076
:101790000E946A01FF91EF91BF91AF919F918F914C
:1017A0007F916F915F914F913F912F910F900FBE5D
:1017B0000F901F9018951F920F920FB60F92112441
:1017C0002F938F939F93EF93FF93E091AD01F0914F
:1017D000AE018081E091B301F091B40182FD1BC0A4
:1017E00090818091B6018F5F8F732091B70182172E
:1017F00041F0E091B601F0E0E356FE4F958F809303
:10180000B601FF91EF919F918F912F910F900FBE95
:101810000F901F9018958081F4CF1F920F920FB6F2
:101820000F9211242F933F938F939F93AF93BF9366
:101830008091990190919A01A0919B01B0919C0196
:101840003091940123E0230F2D3758F50196A11D07
:10185000B11D209394018093990190939A01A093D4
:101860009B01B0939C018091950190919601A0916C
:101870009701B09198010196A11DB11D809395012A
:1018800090939601A0939701B0939801BF91AF9167
:101890009F918F913F912F910F900FBE0F901F90AE
:1018A000189526E8230F0296A11DB11DD2CFEDE9B0
:1018B000F1E01382128288EE93E0A0E0B0E084832E
:1018C0009583A683B7838AE091E09183808385EC3A
:1018D00090E09587848784EC90E09787868780ECFA
:1018E00090E0918B808B81EC90E0938B828B82ECEB
:1018F00090E0958B848B86EC90E0978B868B118E95
:10190000128E138E148E68E271E086E492E00E94DB
:101910009F0468E271E080E492E00E949F0468E224
:1019200071E08AE392E00C949F04789484B582601D
:1019300084BD84B5816084BD85B5826085BD85B573
:10194000816085BD80916E00816080936E001092F1
:10195000810080918100826080938100809181006C
:1019600081608093810080918000816080938000FD
:101970008091B10084608093B1008091B00081605B
:101980008093B00080917A00846080937A00809187
:101990007A00826080937A0080917A0081608093DF
:1019A0007A0080917A00806880937A001092C1005A
:1019B000E091AD01F091AE0182E08083E091A90158
:1019C000F091AA011082E091AB01F091AC0180E1AD
:1019D00080831092B501E091B101F091B20186E0EF
:1019E0008083E091AF01F091B001808180618083BC
:1019F000E091AF01F091B001808188608083E09137
:101A0000AF01F091B001808180688083E091AF01E7
:101A1000F091B00180818F7D8083C0E0D0E00E9492
:101A20004F082097E1F30E9456018823C1F30E94DA
:101A30000000F5CF8AE392E00E943E0480E492E049
:101A40000E943E0486E492E00C943E04E89409C0AF
:101A500097FB3EF490958095709561957F4F8F4FE1
:101A60009F4F9923A9F0F92F96E9BB279395F695F7
:101A7000879577956795B795F111F8CFFAF4BB0F75
:101A800011F460FF1BC06F5F7F4F8F4F9F4F16C0D9
:101A9000882311F096E911C0772321F09EE8872F63
:101AA000762F05C0662371F096E8862F70E060E01F
:101AB0002AF09A95660F771F881FDAF7880F969598
:101AC000879597F908950E94760D0C94E70D0E9472
:101AD000D90D38F00E94E00D20F0952311F00C9400
:101AE000D00D0C94D60D11240C941B0E0E94F80DF1
:101AF00070F3959FC1F3950F50E0551F629FF00161
:101B0000729FBB27F00DB11D639FAA27F00DB11D79
:101B1000AA1F649F6627B00DA11D661F829F222702
:101B2000B00DA11D621F739FB00DA11D621F839F89
:101B3000A00D611D221F749F3327A00D611D231F5F
:101B4000849F600D211D822F762F6A2F11249F57AD
:101B500050409AF0F1F088234AF0EE0FFF1FBB1FB0
:101B6000661F771F881F91505040A9F79E3F51056F
:101B700080F00C94D00D0C941B0E5F3FE4F3983E64
:101B8000D4F3869577956795B795F795E7959F5F19
:101B9000C1F7FE2B880F911D9695879597F90895AB
:101BA00097F99F6780E870E060E008959FEF80EC10
:101BB000089500240A9416161706180609060895B3
:101BC00000240A9412161306140605060895092E19
:101BD0000394000C11F4882352F0BB0F40F4BF2B88
:101BE00011F460FF04C06F5F7F4F8F4F9F4F0895C8
:101BF00057FD9058440F551F59F05F3F71F04795BE
:101C0000880F97FB991F61F09F3F79F087950895A2
:101C1000121613061406551FF2CF4695F1DF08C0C1
:101C2000161617061806991FF1CF869571056105DE
:101C300008940895E894BB2766277727CB0197F986
:101C40000895F999FECF92BD81BDF89A992780B584
:101C50000895262FF999FECF1FBA92BD81BD20BDF0
:101C60000FB6F894FA9AF99A0FBE019608950E9459
:101C7000790EA59F900DB49F900DA49F800D911D8E
:101C8000112408952F923F924F925F926F927F920C
:101C90008F929F92AF92BF92CF92DF92EF92FF927C
:101CA0000F931F93CF93DF93CDB7DEB7CA1BDB0B28
:101CB0000FB6F894DEBF0FBECDBF09942A883988CD
:101CC00048885F846E847D848C849B84AA84B984D4
:101CD000C884DF80EE80FD800C811B81AA81B981E0
:101CE000CE0FD11D0FB6F894DEBF0FBECDBFED01F4
:101CF0000895A29FB001B39FC001A39F700D811DE5
:101D00001124911DB29F700D811D1124911D089504
:101D1000A1E21A2EAA1BBB1BFD010DC0AA1FBB1FEF
:101D2000EE1FFF1FA217B307E407F50720F0A21B61
:101D3000B30BE40BF50B661F771F881F991F1A94CE
:101D400069F760957095809590959B01AC01BD01F8
:101D5000CF010895EE0FFF1F0590F491E02D099437
:101D60000F931F93CF93DF938230910510F482E09D
:101D700090E0E0914E02F0914F0230E020E0B0E0C0
:101D8000A0E0309799F42115310509F44AC0281BC9
:101D9000390B24303105D8F58A819B816115710595
:101DA00089F1FB0193838283FE0111C0408151813F
:101DB0000281138148175907E0F04817590799F431
:101DC000109761F012960C93129713961C9332960B
:101DD000CF01DF91CF911F910F91089500934E0293
:101DE00010934F02F4CF2115310551F042175307DC
:101DF00038F0A901DB019A01BD01DF01F801C1CF73
:101E0000EF01F9CF90934F0280934E02CDCFFE01A8
:101E1000E20FF31F81939193225031093983288374
:101E2000D7CF20914C0230914D02232B41F42091C9
:101E300002013091030130934D0220934C02209116
:101E40000001309101012115310541F42DB73EB754
:101E50004091040150910501241B350BE0914C0287
:101E6000F0914D02E217F307A0F42E1B3F0B281749
:101E7000390778F0AC014E5F5F4F2417350748F003
:101E80004E0F5F1F50934D0240934C0281939193EC
:101E90009FCFF0E0E0E09CCFCF93DF930097E9F095
:101EA000FC01329713821282A0914E02B0914F0230
:101EB000ED0130E020E01097A1F420813181820F04
:101EC000931F20914C0230914D022817390709F0D9
:101ED00061C0F0934D02E0934C02DF91CF910895E1
:101EE000EA01CE17DF07E8F54A815B819E014115C3
:101EF0005105B1F7E901FB83EA8349915991C40F78
:101F0000D51FEC17FD0761F4808191810296840F43
:101F1000951FE90199838883828193819B838A83BA
:101F2000F0E0E0E012968D919C9113970097B9F53F
:101F30002D913C911197CD010296820F931F209114
:101F40004C0230914D022817390739F6309751F578
:101F500010924F0210924E02B0934D02A0934C0289
:101F6000BCCFD383C28340815181840F951FC81792
:101F7000D90761F44E5F5F4F88819981480F591FDF
:101F8000518340838A819B8193838283211531050C
:101F900009F0B0CFF0934F02E0934E029ECFFD01C7
:101FA000DC01C0CF13821282D7CFB0E0A0E0EBED0E
:101FB000FFE00C94440E8C01009751F4CB010E9479
:101FC000B00E8C01C801CDB7DEB7E0E10C94600E15
:101FD000FC01E60FF71F9C0122503109E217F307BD
:101FE00008F49DC0D901CD91DC911197C617D70790
:101FF00098F0C530D10530F3CE01049786179707C6
:1020000008F3C61BD70B2297C193D1936D937C9392
:10201000CF010E944C0FD6CF5B01AC1ABD0A4C0118
:102020008C0E9D1EA0914E02B0914F02512C412C5E
:10203000F12CE12C109731F580914C0290914D02DA
:102040008815990509F05CC04616570608F058C077
:102050008091000190910101009741F48DB79EB7E6
:102060004091040150910501841B950BE817F90775
:1020700008F055C0F0934D02E0934C02F9017183D2
:102080006083A0CF8D919C91119712966C901297BE
:1020900013967C901397A815B90559F56C0142E089
:1020A000C40ED11CCA14DB0420F1AC014A195B092F
:1020B000DA011296159780F0628273825183408311
:1020C000D9016D937C93E114F10471F0D70113965B
:1020D000FC93EE93129776CF22968C0F9D1FF901F9
:1020E00091838083F301EFCFF0934F02E0934E0290
:1020F00069CF4816590608F42C017D01D3019ACF07
:10210000CB010E94B00E7C01009749F0AE01B801EE
:102110000E949210C8010E944C0F870153CF10E01B
:1021200000E050CFFB01DC0102C001900D92415054
:102130005040D8F70895FB01DC018D910190801982
:102140000110D9F3990B0895FB01DC0101900D9268
:102150000020E1F70895FB01DC014150504048F0B8
:1021600001900D920020C9F701C01D9241505040CE
:10217000E0F7089510E0CFE7D0E004C0FE010E9430
:0E218000AA0E2196C038D107C9F7F894FFCFF8
:10218E00000050028000000000008C01AC00D9005D
:10219E00F4014A01E8003C012F2F22225C5C620808
:1021AE00660C6E0A720D7409000D0A004346002378
:1021BE0043465331002343465332004E4557005396
:1021CE00746F7070696E6720746F20726561642021
:1021DE0070726976617465206B6579004C6F676902
:1021EE006E002353523A00436C65616E696E672030
:1021FE006D656D6F7279002345524C00436D64001E
:10220E00507269766174654B6579005061737377AE
:04221E006F72640077
:00000001FF
