:020000040000FA
:100000000C9435000C945D000C945D000C945D0024
:100010000C945D000C945D000C945D000C945D00EC
:100020000C945D000C945D000C945D000C945D00DC
:100030000C945D000C945D000C945D000C945D00CC
:100040000C9403020C945D000C9473020C944D020A
:100050000C945D000C945D000C945D000C945D00AC
:100060000C945D000C945D00900911241FBECFEF2D
:10007000D8E0DEBFCDBF22E0A6E6B1E001C01D9210
:10008000A031B207E1F711E0A0E0B1E0ECEEF7E15A
:1000900002C005900D92A636B107D9F710E0C5E36E
:1000A000D0E004C02197FE010E94FC09C433D107AF
:1000B000C9F70E9480080C94F40B0C940000AF92D6
:1000C000BF92CF92DF92EF92FF920F931F93CF9345
:1000D000DF936C017B018B01040F151FEB015E01A7
:1000E000AE18BF08C017D10759F06991D601ED913C
:1000F000FC910190F081E02DC6010995892B79F7DB
:10010000C501DF91CF911F910F91FF90EF90DF908C
:10011000CF90BF90AF900895FC01538D448D252F53
:1001200030E0842F90E0821B930B541710F0CF9691
:10013000089501970895FC01918D828D981761F0C3
:10014000A28DAE0FBF2FB11D5D968C91928D9F5FDA
:100150009F73928F90E008958FEF9FEF0895FC01B9
:10016000918D828D981731F0828DE80FF11D858D6C
:1001700090E008958FEF9FEF0895FC01918D228DFF
:10018000892F90E0805C9F4F821B91098F73992784
:1001900008958FE691E00E94BD0021E0892B09F4CB
:1001A00020E0822F089580E090E0892B29F00E94C2
:1001B000C90081110C9400000895FC01A48DA80FC2
:1001C000B92FB11DA35ABF4F2C91848D90E0019699
:1001D0008F739927848FA689B7892C93A089B189B9
:1001E0008C91837080648C93938D848D981306C05A
:1001F0000288F389E02D80818F7D80830895EF92BE
:10020000FF920F931F93CF93DF93EC0181E0888FD0
:100210009B8D8C8D98131AC0E889F989808185FFA0
:1002200015C09FB7F894EE89FF896083E889F98942
:1002300080818370806480839FBF81E090E0DF9144
:10024000CF911F910F91FF90EF900895F62E0B8D97
:1002500010E00F5F1F4F0F731127E02E8C8D8E1152
:100260000CC00FB607FCFACFE889F989808185FFB9
:10027000F5CFCE010E94DD00F1CFEB8DEC0FFD2F0D
:10028000F11DE35AFF4FF0829FB7F8940B8FEA8974
:10029000FB8980818062CFCFCF93DF93EC01888D83
:1002A0008823B9F0AA89BB89E889F9898C9185FDF1
:1002B00003C0808186FD0DC00FB607FCF7CF8C917F
:1002C00085FFF2CF808185FFEDCFCE010E94DD005A
:1002D000E9CFDF91CF910895FC0101900020E9F76B
:1002E0003197AF01481B590BBC018FE691E00C948C
:1002F0005F006F927F928F929F92AF92BF92CF9248
:10030000DF92EF92FF920F931F93CF93DF93CDB7BE
:10031000DEB78C016DB67EB690E080E00E94BD092C
:10032000E82EF12CC70101962DB73EB7281B390BDB
:100330000FB6F8943EBF0FBE2DBF8DB79EB7019686
:100340006C014C01B12CA12CAE14BF0454F49FEFEE
:10035000A91AB90AC5010E94BD09F40181934F0190
:10036000F3CFF601EE0DFF1D1082F801118210820D
:100370001382128215821482F60101900020E9F79F
:1003800031977F01EC18FD08B7016F5F7F4F90E058
:1003900080E00E94270BF801009799F091838083F9
:1003A000F382E28224813581232B11F4FC01108237
:1003B000F801F582E482B601808191810E94ED0B03
:1003C0000DC080819181009711F00E949E0AF80172
:1003D000118210821582148213821282C8010FB614
:1003E000F8947EBE0FBE6DBEDF91CF911F910F912D
:1003F000FF90EF90DF90CF90BF90AF909F908F9045
:100400007F906F9008951F920F920FB60F92112454
:100410002F933F938F939F93AF93BF9380916B01E3
:1004200090916C01A0916D01B0916E0130916A01C3
:1004300023E0230F2D3758F50196A11DB11D209300
:100440006A0180936B0190936C01A0936D01B0934E
:100450006E018091660190916701A0916801B09151
:1004600069010196A11DB11D8093660190936701FA
:10047000A0936801B0936901BF91AF919F918F9153
:100480003F912F910F900FBE0F901F90189526E867
:10049000230F0296A11DB11DD2CF1F920F920FB64E
:1004A0000F9211242F933F934F935F936F937F93FA
:1004B0008F939F93AF93BF93EF93FF938FE691E05A
:1004C0000E94DD00FF91EF91BF91AF919F918F91BD
:1004D0007F916F915F914F913F912F910F900FBE40
:1004E0000F901F9018951F920F920FB60F92112424
:1004F0002F938F939F93EF93FF93E0917F01F09160
:1005000080018081E0918501F091860182FD1BC010
:100510009081809188018F5F8F732091890182176C
:1005200041F0E0918801F0E0E159FE4F958F809312
:100530008801FF91EF919F918F912F910F900FBEA6
:100540000F901F9018958081F4CF000000000000EC
:10055000000000000000000000000000000000009B
:10056000000000000000000000000000000000008B
:10057000000000000000000000000000000000007B
:10058000000000000000000000000000000000006B
:10059000000000000000000000000000000000005B
:1005A000000000000000000000000000000000004B
:1005B000000000000000000000000000000000003B
:1005C000000000000000000000000000000000002B
:1005D000000000000000000000000000000000001B
:1005E000000000000000000000000000000000000B
:1005F00000000000000000000000000000000000FB
:100600004EE003C04CE001C04AE02F923F924F926F
:100610005F926F927F928F929F92AF92BF92CF9292
:10062000DF92EF92FF920F931F93CF93DF938F93FD
:100630009F93DB01FC01842F43954295A40FB11DCC
:10064000E89481909190A190B190C190D190E19067
:10065000F1900191119121913191419151916191CB
:1006600071919BE10E9070250E9060250E905025A3
:100670000E9040250E9030250E9020250E901025CE
:100680000E9000250E90F0240E90E0240E90D024C1
:100690000E90C0240E90B0240E90A0240E909024B2
:1006A0000E9080248A9509F46894FEE0E82D8490E9
:1006B000EC2DC490E02F0491E42F4491E52F249079
:1006C000E12F5491ED2D1491E92DD490922CE62F29
:1006D0002490E22F3490EE2D6491EA2D2491E22CA7
:1006E000A32CEB2D2490EF2DB490E32FF490E72F63
:1006F0003491722D0E9070250E9060250E9050252D
:100700000E9040250E9030250E9020250E9010253D
:100710000E9000250E90F0240E90E0240E90D02430
:100720000E90C0240E90B0240E90A0240E90902421
:100730000E9080242EF5FF91EF9181929192A192DB
:10074000B192C192D192E192F192019311932193CE
:1007500031934193519361937193DF91CF911F91A5
:100760000F91FF90EF90DF90CF90BF90AF909F9050
:100770008F907F906F905F904F903F902F90089553
:10078000F9E02B2C2A24382C3924E22DE32544903F
:10079000FAE0EA2DE82554905424EB2DE925049045
:1007A0004024682C6B24660C08F469266424B62463
:1007B0006A2C6924660C08F4692664249624220CA9
:1007C00008F429262524A224330C08F439263524DC
:1007D0008324F9E02F2C2E243C2C3D24E22DE3250C
:1007E0004490FAE0EE2DEC2554905424EF2DED25A5
:1007F000049040246C2C6F24660C08F46926642451
:10080000F6246E2C6D24660C08F469266424D62424
:10081000220C08F429262524E224330C08F4392676
:100820003524C324F9E0232E2226302E3126E22D52
:10083000E3254490FAE0E22FE02754905424E32F7C
:10084000E12704904024602E6326660C08F4692694
:1008500064243625622E6126660C08F46926642419
:100860001625220C08F4292625242225330C08F409
:10087000392635240325F9E0272E2626342E352661
:10088000E22DE3254490FAE0E62FE4275490542427
:10089000E72FE52704904024642E6726660C08F4B1
:1008A000692664247625662E6526660C08F469267A
:1008B00064245625220C08F4292625246225330CAD
:1008C00008F4392635244325EDCE00000000000051
:1008D0000000000000000000000000000000000018
:1008E0000000000000000000000000000000000008
:1008F00000000000000000000000000000000000F8
:100900000009121B242D363F48415A536C657E77EF
:100910009099828BB4BDA6AFD8D1CAC3FCF5EEE7DF
:100920003B3229201F160D04737A6168575E454CCF
:10093000ABA2B9B08F869D94E3EAF1F8C7CED5DCBF
:10094000767F646D525B40493E372C251A130801AF
:10095000E6EFF4FDC2CBD0D9AEA7BCB58A8398919F
:100960004D445F5669607B72050C171E2128333A8F
:10097000DDD4CFC6F9F0EBE2959C878EB1B8A3AA7F
:10098000ECE5FEF7C8C1DAD3A4ADB6BF8089929B6F
:100990007C756E6758514A43343D262F1019020B5F
:1009A000D7DEC5CCF3FAE1E89F968D84BBB2A9A04F
:1009B000474E555C636A71780F061D142B2239303F
:1009C0009A938881BEB7ACA5D2DBC0C9F6FFE4ED2F
:1009D0000A0318112E273C35424B5059666F747D1F
:1009E000A1A8B3BA858C979EE9E0FBF2CDC4DFD60F
:1009F0003138232A151C070E79706B625D544F46FF
:100A00000004080C1014181C2024282C3034383C06
:100A10004044484C5054585C6064686C7074787CF6
:100A20008084888C9094989CA0A4A8ACB0B4B8BCE6
:100A3000C0C4C8CCD0D4D8DCE0E4E8ECF0F4F8FCD6
:100A40001B1F13170B0F03073B3F33372B2F232796
:100A50005B5F53574B4F43477B7F73776B6F636786
:100A60009B9F93978B8F8387BBBFB3B7ABAFA3A776
:100A7000DBDFD3D7CBCFC3C7FBFFF3F7EBEFE3E766
:100A800036323E3A26222E2A16121E1A06020E0A66
:100A900076727E7A66626E6A56525E5A46424E4A56
:100AA000B6B2BEBAA6A2AEAA96929E9A86828E8A46
:100AB000F6F2FEFAE6E2EEEAD6D2DEDAC6C2CECA36
:100AC0002D2925213D3935310D0905011D19151136
:100AD0006D6965617D7975714D4945415D59555126
:100AE000ADA9A5A1BDB9B5B18D8985819D99959116
:100AF000EDE9E5E1FDF9F5F1CDC9C5C1DDD9D5D106
:100B00004EE003C04CE001C04AE02F923F924F926A
:100B10005F926F927F928F929F92AF92BF92CF928D
:100B2000DF92EF92FF920F931F93CF93DF938F93F8
:100B30009F93DB01FC01842FE89481909190A19018
:100B4000B190C190D190E190F190019111912191DA
:100B5000319141915191619171919BE1F0E10D9041
:100B600080240D9090240D90A0240D90B0240D9021
:100B7000C0240D90D0240D90E0240D90F0240D9011
:100B800000250D9010250D9020250D9030250D90FD
:100B900040250D9050250D9060250D9070252EF567
:100BA000FF91EF9181929192A192B192C192D192D3
:100BB000E192F192019311932193319341935193D7
:100BC00061937193DF91CF911F910F91FF90EF90FF
:100BD000DF90CF90BF90AF909F908F907F906F905D
:100BE0005F904F903F902F9008958A9509F46894F4
:100BF000E82D8490EC2DC490E02F0491E42F4491D3
:100C0000E92D2490ED2D9490E12FD490E52F1491AF
:100C1000522DEA2D2490EE2D3490E22FA490E62F51
:100C2000E490222D632DEB2D2490E72FB490E32F39
:100C30007491EF2D3491F22C0EF491CF0A2C0B24E9
:100C4000402C282C89240824880C08F48926802428
:100C50008224392C3A24330C08F439263024932486
:100C6000440C08F449264024A4242B24220C08F424
:100C700029262024B2240E2C0F24402C2C2CCD24E9
:100C80000C24CC0C08F4C926C024C2243D2C3E24DC
:100C9000330C08F439263024D324440C08F44926B4
:100CA0004024E4242F24220C08F429262024F224B2
:100CB000022E0326402C202E01270026000F08F4C8
:100CC000092700250225312E3226330C08F4392657
:100CD00030241325440C08F44926402424252326D7
:100CE000220C08F4292620243225062E0726402C23
:100CF000242E45270426440F08F449274025422581
:100D0000352E3626330C08F4392630245325440C6E
:100D100008F44926402464252726220C08F42926B5
:100D2000202472251CCF00000000000000000000FD
:100D300000000000000000000000000000000000B3
:100D400000000000000000000000000000000000A3
:100D50000000000000000000000000000000000093
:100D60000000000000000000000000000000000083
:100D70000000000000000000000000000000000073
:100D80000000000000000000000000000000000063
:100D90000000000000000000000000000000000053
:100DA0000000000000000000000000000000000043
:100DB0000000000000000000000000000000000033
:100DC0000000000000000000000000000000000023
:100DD0000000000000000000000000000000000013
:100DE0000000000000000000000000000000000003
:100DF00000000000000000000000000000000000F3
:100E000052096AD53036A538BF40A39E81F3D7FB7F
:100E10007CE339829B2FFF87348E4344C4DEE9CBC9
:100E2000547B9432A6C2233DEE4C950B42FAC34E3E
:100E3000082EA16628D924B2765BA2496D8BD125F4
:100E400072F8F66486689816D4A45CCC5D65B69298
:100E50006C704850FDEDB9DA5E154657A78D9D843C
:100E600090D8AB008CBCD30AF7E45805B8B345065C
:100E7000D02C1E8FCA3F0F02C1AFBD0301138A6B76
:100E80003A9111414F67DCEA97F2CFCEF0B4E673A6
:100E900096AC7422E7AD3585E2F937E81C75DF6E54
:100EA00047F11A711D29C5896FB7620EAA18BE1BBA
:100EB000FC563E4BC6D279209ADBC0FE78CD5AF460
:100EC0001FDDA8338807C731B11210592780EC5FA6
:100ED00060517FA919B54A0D2DE57A9F93C99CEF02
:100EE000A0E03B4DAE2AF5B0C8EBBB3C8353996103
:100EF000172B047EBA77D626E169146355210C7D41
:100F0000AB0171E060E007C0AB0170E060EC03C0D2
:100F1000AB01772760E8EF92FF920F931F93CF9377
:100F2000DF93FA01EA01DC0176956795669566958F
:100F3000262F0D9001922A95E1F76695669563FB41
:100F4000362F762F795F770F770FDF011497262FD3
:100F5000E0E0F0E17F0111E04D915D918D919D9177
:100F60003217B1F05EF5022F0770043039F5F70142
:100F7000E40FF11D4491F701E50FF11D5491F701C4
:100F8000E80FF11D8491F701E90FF11D949116C04E
:100F9000360FF701E40FF11D0491F701E50FF11D84
:100FA0004491F701E80FF11D5491F701E90FF11D8C
:100FB0008491902F4127110F08F41BE1FD01099046
:100FC00004260192099005260192099008260192B3
:100FD0000990092601922395271709F0BDCFE894BF
:100FE000DF91CF911F910F91FF90EF900895000036
:100FF00000000000000000000000000000000000F1
:10100000637C777BF26B6FC53001672BFED7AB76C5
:10101000CA82C97DFA5947F0ADD4A2AF9CA472C070
:10102000B7FD9326363FF7CC34A5E5F171D83115DD
:1010300004C723C31896059A071280E2EB27B275FE
:1010400009832C1A1B6E5AA0523BD6B329E32F8476
:1010500053D100ED20FCB15B6ACBBE394A4C58CF6E
:10106000D0EFAAFB434D338545F9027F503C9FA842
:1010700051A3408F929D38F5BCB6DA2110FFF3D210
:10108000CD0C13EC5F974417C4A77E3D645D1973C4
:1010900060814FDC222A908846EEB814DE5E0BDBBE
:1010A000E0323A0A4906245CC2D3AC629195E479F5
:1010B000E7C8376D8DD54EA96C56F4EA657AAE084F
:1010C000BA78252E1CA6B4C6E8DD741F4BBD8B8AEA
:1010D000703EB5664803F60E613557B986C11D9E50
:1010E000E1F8981169D98E949B1E87E9CE5528DFC7
:1010F0008CA1890DBFE6426841992D0FB054BB16F3
:10110000CF93DF93CDB7DEB7C152D1400FB6F8947D
:10111000DEBF0FBECDBF789484B5826084BD84B538
:10112000816084BD85B5826085BD85B5816085BDE2
:1011300080916E00816080936E001092810080919A
:101140008100826080938100809181008160809322
:101150008100809180008160809380008091B10047
:1011600084608093B1008091B00081608093B00072
:1011700080917A00846080937A0080917A00826006
:1011800080937A0080917A00816080937A008091C8
:101190007A00806880937A001092C100E0917F010C
:1011A000F091800182E08083E0917B01F0917C01ED
:1011B0001082E0917D01F0917E018FEC808310928E
:1011C0008701E0918301F091840186E08083E091C2
:1011D0008101F0918201808180618083E0918101B1
:1011E000F0918201808188608083E0918101F0919B
:1011F0008201808180688083E0918101F091820189
:1012000080818F7D808300E010E08FE691E00E9476
:10121000BD001816190604F58FE691E00E949B00A8
:10122000082E000C990B88539140B1F4CE01019621
:101230000E9479014D815E8169817A818FE691E01A
:101240000E945F008CE391E00E946C0189819A8189
:10125000009711F00E949E0A80E2E6E0F1E0DE01D4
:10126000AF50BF4F01900D928A95E1F781E1E5E51E
:10127000F1E0DE01AF5EBE4F01900D928A95E1F77D
:10128000BE016F5F7F4FCE018F509F4F0E9480073E
:10129000BE016F5F7F4FCE018F5E9E4F0E94800523
:1012A0008FE391E00E946C01CE018F5E9E4F0E9401
:1012B0006C018CE391E00E946C01BE016F5F7F4F77
:1012C000CE018F509F4F0E948007BE016F5F7F4FFE
:1012D000CE018F5E9E4F0E9400038AE491E00E943F
:1012E0006C01CE018F5E9E4F0E946C018CE391E0F9
:1012F0000E946C01CE0101960E94790189819A8138
:10130000009711F00E949E0A0115110509F47DCF86
:101310000E94C900882309F478CF0E94000075CF8D
:10132000EFE6F1E01382128288EE93E0A0E0B0E0F5
:1013300084839583A683B7838AE291E09183808337
:1013400085EC90E09587848784EC90E0978786878A
:1013500080EC90E0918B808B81EC90E0938B828B82
:1013600082EC90E0958B848B86EC90E0978B868B5B
:10137000118E128E138E148E0895F999FECF92BDA0
:1013800081BDF89A992780B508952F923F924F9288
:101390005F926F927F928F929F92AF92BF92CF9205
:1013A000DF92EF92FF920F931F93CF93DF93CDB70E
:1013B000DEB7CA1BDB0B0FB6F894DEBF0FBECDBF86
:1013C00009942A88398848885F846E847D848C8457
:1013D0009B84AA84B984C884DF80EE80FD800C8160
:1013E0001B81AA81B981CE0FD11D0FB6F894DEBF43
:1013F0000FBECDBFED010895EE0FFF1F0590F491D4
:10140000E02D09940F931F93CF93DF9382309105C2
:1014100010F482E090E0E0910E02F0910F0230E0D3
:1014200020E0B0E0A0E0309799F42115310509F4EF
:101430004AC0281B390B24303105D8F58A819B819D
:101440006115710589F1FB0193838283FE0111C04F
:10145000408151810281138148175907E0F04817F4
:10146000590799F4109761F012960C9312971396FE
:101470001C933296CF01DF91CF911F910F91089568
:1014800000930E0210930F02F4CF2115310551F095
:101490004217530738F0A901DB019A01BD01DF01B2
:1014A000F801C1CFEF01F9CF90930F0280930E02A4
:1014B000CDCFFE01E20FF31F8193919322503109AA
:1014C00039832883D7CF20910C0230910D02232B32
:1014D00041F4209102013091030130930D022093D9
:1014E0000C0220910001309101012115310541F4D8
:1014F0002DB73EB74091040150910501241B350BD7
:10150000E0910C02F0910D02E217F307A0F42E1BFC
:101510003F0B2817390778F0AC014E5F5F4F241757
:10152000350748F04E0F5F1F50930D0240930C0299
:10153000819391939FCFF0E0E0E09CCFCF93DF9336
:101540000097E9F0FC01329713821282A0910E02FB
:10155000B0910F02ED0130E020E01097A1F420815E
:101560003181820F931F20910C0230910D022817B8
:10157000390709F061C0F0930D02E0930C02DF918E
:10158000CF910895EA01CE17DF07E8F54A815B8124
:101590009E0141155105B1F7E901FB83EA834991A9
:1015A0005991C40FD51FEC17FD0761F4808191811B
:1015B0000296840F951FE901998388838281938124
:1015C0009B838A83F0E0E0E012968D919C911397C3
:1015D0000097B9F52D913C911197CD010296820F9C
:1015E000931F20910C0230910D022817390739F60C
:1015F000309751F510920F0210920E02B0930D0227
:10160000A0930C02BCCFD383C28340815181840F4D
:10161000951FC817D90761F44E5F5F4F8881998184
:10162000480F591F518340838A819B819383828312
:101630002115310509F0B0CFF0930F02E0930E02AF
:101640009ECFFD01DC01C0CF13821282D7CFB0E064
:10165000A0E0EDE2FBE00C94C7098C01009751F487
:10166000CB010E94020A8C01C801CDB7DEB7E0E1D0
:101670000C94E309FC01E60FF71F9C01225031098D
:10168000E217F30708F49DC0D901CD91DC911197C1
:10169000C617D70798F0C530D10530F3CE010497AF
:1016A0008617970708F3C61BD70B2297C193D193D0
:1016B0006D937C93CF010E949E0AD6CF5B01AC1A3A
:1016C000BD0A4C018C0E9D1EA0910E02B0910F021E
:1016D000512C412CF12CE12C109731F580910C020A
:1016E00090910D028815990509F05CC046165706C1
:1016F00008F058C08091000190910101009741F4D9
:101700008DB79EB74091040150910501841B950B44
:10171000E817F90708F055C0F0930D02E0930C02AA
:10172000F90171836083A0CF8D919C9111971296DE
:101730006C90129713967C901397A815B90559F5DC
:101740006C0142E0C40ED11CCA14DB0420F1AC01D0
:101750004A195B09DA011296159780F0628273824A
:1017600051834083D9016D937C93E114F10471F0AE
:10177000D7011396FC93EE93129776CF22968C0F97
:101780009D1FF90191838083F301EFCFF0930F0246
:10179000E0930E0269CF4816590608F42C017D012A
:1017A000D3019ACFCB010E94020A7C01009749F035
:1017B000AE01B8010E94E40BC8010E949E0A870195
:1017C00053CF10E000E050CFFB01DC0102C00190DC
:1017D0000D9241505040D8F70895FB01DC01019073
:1017E0000D920020E1F70895F894FFCF0000100259
:1017F0008000000102030405060708090A0B0C0D0E
:101800000E0F101112131415161718191A1B1C1D80
:101810001E1F00000000FF005F008C004C01BD0097
:101820009B00AF00234346000D0A00656E6372798A
:10183000707465643A006465637279707465643AC3
:101840000030313233343536373839303132333491
:02185000350061
:107E0000112484B714BE81FFF0D085E080938100F7
:107E100082E08093C00088E18093C10086E0809377
:107E2000C20080E18093C4008EE0C9D0259A86E02C
:107E300020E33CEF91E0309385002093840096BBD3
:107E4000B09BFECF1D9AA8958150A9F7CC24DD24C4
:107E500088248394B5E0AB2EA1E19A2EF3E0BF2EE7
:107E6000A2D0813461F49FD0082FAFD0023811F036
:107E7000013811F484E001C083E08DD089C08234E0
:107E800011F484E103C0853419F485E0A6D080C0E4
:107E9000853579F488D0E82EFF2485D0082F10E0AE
:107EA000102F00270E291F29000F111F8ED06801E7
:107EB0006FC0863521F484E090D080E0DECF843638
:107EC00009F040C070D06FD0082F6DD080E0C81688
:107ED00080E7D80618F4F601B7BEE895C0E0D1E017
:107EE00062D089930C17E1F7F0E0CF16F0E7DF06D8
:107EF00018F0F601B7BEE89568D007B600FCFDCFD4
:107F0000A601A0E0B1E02C9130E011968C91119780
:107F100090E0982F8827822B932B1296FA010C0160
:107F200087BEE89511244E5F5F4FF1E0A038BF0790
:107F300051F7F601A7BEE89507B600FCFDCF97BE46
:107F4000E89526C08437B1F42ED02DD0F82E2BD052
:107F50003CD0F601EF2C8F010F5F1F4F84911BD097
:107F6000EA94F801C1F70894C11CD11CFA94CF0C13
:107F7000D11C0EC0853739F428D08EE10CD085E9AC
:107F80000AD08FE07ACF813511F488E018D01DD067
:107F900080E101D065CF982F8091C00085FFFCCF94
:107FA0009093C60008958091C00087FFFCCF809118
:107FB000C00084FD01C0A8958091C6000895E0E648
:107FC000F0E098E1908380830895EDDF803219F02E
:107FD00088E0F5DFFFCF84E1DECF1F93182FE3DFCA
:107FE0001150E9F7F2DF1F91089580E0E8DFEE27F6
:047FF000FF270994CA
:027FFE00040479
:00000001FF
